:020000040800F2
:10000000980500200101000873180008D7140008A3
:100010007118000803070008051C00080000000014
:10002000000000000000000000000000AF18000801
:100030002107000800000000AD180008B1180008F2
:100040001B0100081B0100081B0100081B01000820
:100050001B0100081B0100081B0100081B01000810
:100060001B0100081B0100081B0100081B01000800
:100070001B0100081B0100081B0100081B010008F0
:100080001B0100081B0100081B0100081B010008E0
:100090001B0100081B0100081B0100081B010008D0
:1000A0001B010008411900081B0100081B01000882
:1000B0001B0100081B010008000000001B010008D4
:1000C0001B01000800000000000000001B010008E8
:1000D000000000001B010008A11B00080000000038
:1000E0001B0100081B0100081B010008DFF80CD0F1
:1000F00000F0D4FA00480047912500089805002038
:100100000648804706480047FEE7FEE7FEE7FEE7B1
:10011000FEE7FEE7FEE7FEE7FEE7FEE7F918000868
:10012000ED000008202A04DB203A21FA02F0002129
:10013000704721FA02F3D040C2F1200291400843F7
:1001400019467047D2B201E000F8012B491EFBD2DC
:1001500070470022F6E710B513460A4604461946D2
:10016000FFF7F0FF204610BD10B5002200E0521C42
:10017000835C8C5CA34201D1002BF8D1D8B2E1B2F0
:10018000401A10BD034611F8012B00F8012B002A7C
:10019000F9D1184670472DE9FE4F81EA030404F0B7
:1001A000004421F0004100944FF0000B23F0004385
:1001B00050EA01045ED052EA03045BD0C3F30A5450
:1001C000C1F30A552C44A4F2F3340194A0FB025469
:1001D000C1F3130141F48011C3F3130343F48013FB
:1001E00001FB024400FB034E840A970A44EA81544F
:1001F00047EA8357A4FB076802958D0A05FB07852C
:100200004FEA932C04FB0C542705029D4FEA065835
:1002100047EA1637B5EB08056EEB070C870E920E12
:1002200047EA811742EA8312A7FB0201B6EB0B01F2
:1002300064EB00042B0D43EA0C335E1844EB1C50B6
:10024000DA465146E7FB0201C5F313044FEA0B33CC
:1002500043EA14534FEA0432019C43EA0603A4F133
:100260000C040294009CCDE900B400F082F803B0C5
:10027000BDE8F08F00200146F9E70EB540F23341AA
:1002800002910021CDE900110A460B4600F071F8F9
:1002900003B000BDC1F30A5210B5C1F3130140F21F
:1002A000FF3341F480119A4201DA002010BD40F280
:1002B00033439A42A2F2334203DC5242FFF732FF49
:1002C00010BD904010BD30B50B46014600202022E5
:1002D000012409E021FA02F59D4205D303FA02F553
:1002E000491B04FA02F52844151EA2F10102F1DCB3
:1002F00030BD2DE9F05F0546002092469B468846BA
:100300000646814640241BE0284641464746224691
:10031000FFF708FF53465A46C01A914110D31146C1
:100320001846224600F0CCF92D1A67EB01084F461B
:1003300022460120002100F0C3F917EB00094E41CD
:10034000201EA4F10104DFDC484631462A4643461C
:10035000BDE8F09F10B5141E73F1000408DA401CCC
:1003600041F1000192185B411A4301D120F00100D4
:1003700010BD2DE9F04D92469B4611B1B1FA81F2C4
:1003800002E0B0FA80F22032904600F099F904467B
:100390000F4640EA0A0041EA0B0153465A46084319
:1003A00013D0114653EA010019D0C8F1400250465B
:1003B000FFF7B8FE05460E4650465946424600F045
:1003C0007FF9084305D0012004E020463946BDE806
:1003D000F08D0020054346EAE0762C4337430A9827
:1003E0006305E40AA0EB08000022FD0A44EA475432
:1003F0000A3002D500200146E9E7010510196941DC
:10040000DDE9084500196941BDE8F04DA2E72DE995
:10041000FE4F804681EA0300C00F0C46009021F099
:10042000004123F00045B8EB0200A94105D2404647
:10043000214690461C460B46024623F000401043DE
:1004400047D0270DC7F30A00C3F30A510290401AA0
:10045000019040286BDAC3F3130040F4801B00982E
:10046000924620B10023D2EB030A63EB0B0B0198F9
:100470005946C0F14002504600F022F906460D46AA
:1004800050465946019A00F02AF910EB08006141E4
:10049000002487EA115284EAE7731A4340D0009A95
:1004A00062B3019A012A4FEA075215DC001B61EB87
:1004B00002014FF0004202EA0752CDE90042001C5F
:1004C00041F5801132462B46FFF753FF03B0BDE8DC
:1004D000F08F40462146F9E7001B61EB0201001C4A
:1004E00041F5801300185B412018A2F5001747EB77
:1004F000030140EAD570B6196D4111E06D084FEA6D
:10050000360645EAC0754FEA0752001B61EB02014F
:10051000001C41F5801149084FEA30000019514193
:1005200032462B4603B0BDE8F04FFFF713BF0098EB
:10053000012240000023D0EB020263EBE07300983D
:1005400021464FEAE074B8EB000061EB0401E9E7F3
:1005500083F000435BE781F0004158E72DE9F04D5F
:1005600081EA030404F0004B21F0004514464FF0EB
:10057000000A23F0004150EA050220D054EA0102AB
:100580001DD0C5F30A570246C5F31303C1F3130088
:10059000C1F30A5640F4801543F48013A7EB060814
:1005A000101BD64608F2FD3873EB050002D308F1A4
:1005B000010801E092185B41B8F1000F03DA002056
:1005C0000146BDE8F08D00204FF4801106468446B8
:1005D0000EE0171B73EB050705D3121B63EB050336
:1005E00006434CEA010C49084FEA300092185B417F
:1005F00050EA0107EDD152EA030012D082EA04006A
:1006000083EA0501084305D0101BAB4106D2012245
:10061000002306E000224FF0004302E06FF00102E9
:1006200053101AEB06004CEB085110EB0A0041EB9B
:100630000B01BDE8F04DFFF78DBEC1F30A52C1F3C7
:10064000130140F2FF3341F480119A4202DA002094
:100650000146704740F233439A42A2F2334202DC31
:100660005242FFF75FBD00F02BB8000030B5041E0A
:1006700071F1000404DB4FF00044404264EB0101DF
:10068000141E73F1000405DB1C464FF00043524278
:1006900063EB0403994208BF904230BD064C074DFE
:1006A00006E0E06840F0010394E807009847103442
:1006B000AC42F6D3FFF71EFD8C260008AC260008DE
:1006C000202A04DB203A00FA02F100207047914012
:1006D000C2F1200320FA03F3194390407047202A07
:1006E00006DBCB17203A41FA02F043EAE07306E05A
:1006F00041FA02F3D040C2F120029140084319466A
:100700007047FEE70020044A01461154401C20288F
:10071000FBDB024801607047C40000202400002079
:100720007047000070B5044600F0FAF80546601CFA
:1007300002D004480078044400F0F2F8401BA042C4
:10074000FAD370BD300000202DE9F84FDFF89C91FE
:10075000002409F1040A0AF1040B23460F270BF1C8
:10076000040EBBE00125A5402A40AA4276D1DFF85D
:1007700080C14E68A6EB0C0866452BD00DDC032E1D
:1007800034D005DC36B3012E19D0022E2FD11BE058
:10079000112E16D0122E2AD119E0B8F5881F19D0C3
:1007A00006DCB8F5803F15D0B8F5801F1FD111E0E9
:1007B000B8F5001F0ED0B8F5041F18D10AE0CB68B9
:1007C00015E0CB681B1D12E0CB6808330FE0CB6847
:1007D0000C330CE08B682BB1012B4FF0080303D0D6
:1007E000456104E0042302E0056100E00023FF2AE4
:1007F00001D8064601E000F104064FEA840501D95C
:10080000A5F12005D6F8008007FA05FC28EA0C08B7
:1008100003FA05F548EA0508C6F800804D68ED00C2
:100820005BD5344DAE6946F00106AE61AD6924F08A
:10083000030605F0010500952F4D06EB050CDCF8CD
:100840000850A607360F07FA06F825EA0805DFF86C
:10085000AC80404503D14FF0000810E03DE0DFF8E8
:10086000A080404502D14FF0010808E0DFF89480F5
:10087000404502D14FF0020801E04FF0030808FAAA
:1008800006F848EA0508CCF808804D68D9F80060F9
:10089000ED034D4601D5164300E096432E604D68AA
:1008A000DAF80060AD03554601D5164300E09643E3
:1008B0002E604D68DBF80060ED025D4601D5164301
:1008C00000E096432E604D68DEF80060AD0275468C
:1008D00001D5164300E096432E60641C0A6832FA84
:1008E00004F57FF43FAFBDE8F88F0000000401403D
:1008F00000001110001002400000014000080140FB
:10090000000C014000100140C2680A4201D0416160
:100910007047016170470AB1016170470904FBE744
:10092000014880687047000030000020024881685C
:10093000027811448160704730000020074810B5EC
:10094000016841F010010160032000F075F80020FB
:1009500000F006F800F024F8002010BD002002404E
:1009600070B50D4D04464FF47A712878B1FBF0F064
:100970000A490968B1FBF0F000F00CFB48B9102CF3
:1009800007D200222146501E00F036F800206C608D
:1009900070BD012070BD0000300000203C00002030
:1009A0000C4808B5816941F001018161816901F05C
:1009B00001010091C16941F08051C161C06900F03D
:1009C000805000900448416821F0E06141F080616E
:1009D000416008BD0010024000000140002809DB12
:1009E00000F01F02012191404009800000F1E02049
:1009F000C0F8001170470000F0B40E4B1B680C46A5
:100A0000C3F30223C3F10705042D00D90425191DE2
:100A1000072901D2002300E0DB1E012606FA05F1BA
:100A2000491E214099409E40761E16403143F0BC3D
:100A300001F028B90CED00E0064900F00702086853
:100A40004FF6FF03184040EA0220034A10430860B3
:100A5000704700000CED00E00000FA052DE9F047BA
:100A60000F46050061D0434E306800F00700B842E1
:100A700009D2306820F0070038433060306800F059
:100A80000700B84251D128683B4C810712D5400776
:100A900003D5606840F4E06060602878000703D503
:100AA000606840F4605060606068A96820F0F00001
:100AB000084360602878C00728D06868012810D0F3
:100AC0002168022810D0890700292EDA616821F0F8
:100AD000030101436160FFF723FF804641F288393B
:100AE0000DE021688903EFE78901EDE7FFF718FFC3
:100AF000A0EB0801494502D90320BDE8F0876068F2
:100B0000696800F00C00B0EB810FEFD1306800F0A5
:100B10000700B8420BD9306820F007003843306036
:100B2000306800F00700B84201D00120E5E72878DE
:100B3000400705D56068E96820F4E060084360601C
:100B40002878000706D56068296920F4605040EADB
:100B5000C100606000F058F86168084AC1F30311F1
:100B6000515CC8400649086006480068FFF7F8FE77
:100B70000020C2E700200240001002407426000856
:100B80003C000020340000200F2202600C4A536811
:100B900003F003034360536803F0F003836053687A
:100BA00003F4E063C36052684FF4E06303EAD202E7
:100BB00002610448006800F0070008607047000008
:100BC00000100240002002400448054900684968BE
:100BD000044AC1F30221515CC84070473C00002028
:100BE000001002408426000804480549006849684E
:100BF000044AC1F3C221515CC84070473C00002048
:100C0000001002408426000812A185B00FC98DE8AB
:100C10000F0014A0144A006804905168134801F0B2
:100C20000C03042B10D0082B0ED1C1F38343C9034E
:100C30001DF803000AD5516804AAC1F34041515C74
:100C40000A4A5043B0FBF1F005B0704708494843E9
:100C5000FAE7000002030405060708090A0B0C0D59
:100C60000E0F1010010200000010024000127A0066
:100C700000093D002DE9F84F040070D02078C04DE8
:100C8000C00749D06868C0F38100012807D06868B0
:100C9000C0F38100022809D16868C00306D528681E
:100CA000800339D560680028E7D035E06068B0F58A
:100CB000803F0BD010B1B0F5A02F11D0286820F4E0
:100CC00080302860286820F4802002E0286840F402
:100CD00080302860606890B1FFF722FE06460AE087
:100CE000286840F480202860F0E700BFFFF718FE76
:100CF000801B642873D828688003F7D50CE0FFF7C1
:100D00000FFE064605E000BFFFF70AFE801B6428C1
:100D1000F0D828688003F7D420789A4E80074FF0E7
:100D200001094FF0000839D5686810F00C0F07D0A2
:100D30006868C0F38100022809D16868C00306D43E
:100D40002868800714D52069012808D110E020699F
:100D5000B0B1C6F80090FFF7E3FD074605E00AE1F1
:100D6000FFF7DEFDC01B0228C4D828688007F7D52E
:100D70002868616920F0F80040EAC10028600DE0B1
:100D8000C6F80080FFF7CCFD074604E0FFF7C8FD7A
:100D9000C01B022823D828688007F7D420780007D2
:100DA0002CD57948A169D9B1C0F80090FFF7B8FDFA
:100DB000074604E0FFF7B4FDC01B02280FD8686A9D
:100DC0008007F7D571484FF4FA510068B0FBF1F095
:100DD000009000BF0098411E0091FAD20EE080E022
:100DE000C0F80080FFF79CFD074604E0FFF798FD80
:100DF000C01B022875D8686A8007F7D4207840079E
:100E000060D5E8690027C00008D4E86940F0805048
:100E1000E861E869012700F0805000905C480168B3
:100E2000C90513D40168834641F480710160FFF75E
:100E300077FD824606E000BFFFF772FDA0EB0A00D7
:100E400064284ED8DBF80000C005F5D5E06801281D
:100E50000AD008B1052813D0286A20F001002862C2
:100E6000286A20F0040002E0286A40F001002862AD
:100E7000E06841F2883B98B1FFF752FD82460BE0F3
:100E8000286A40F004002862EEE700BFFFF748FD43
:100E9000A0EB0A0159455AD8286A8007F6D50CE01C
:100EA000FFF73EFD824605E0FFF73AFDA0EB0A01A1
:100EB00059454CD8286A8007F6D41FB1E86920F05C
:100EC0008050E861E06988B36968C1F38101022953
:100ED00044D00228C6F8608004D0FFF721FD044604
:100EE00038E034E0FFF71CFD074604E0FFF718FD8B
:100EF000C01B02282BD828688001F7D4206AB0F5DF
:100F0000803F05D16868A16820F40030084368601C
:100F1000D4E908010843696821F474110843686042
:100F2000C6F86090FFF7FCFC044606E025E000BF31
:100F3000FFF7F6FC001B022809D828688001F7D5C6
:100F40001BE000BFFFF7ECFC001B022802D90320C6
:100F5000BDE8F88F28688001F4D40EE00128F7D0AE
:100F60006868226A00F48031914204D1616A00F419
:100F70007010884201D00120EAE70020E8E7000075
:100F80000010024000004242800442423C00002027
:100F90000070004010B5401EB0F1807F01D30120E9
:100FA00010BD4FF0E02460610F21601700F06AFE71
:100FB0000020A06107202061002010BD704770470D
:100FC00070B590F83C20012A19D0012400F83C4F5C
:100FD0000222427050F83C3C5A689D6822F070062C
:100FE0000A684968324325F0800529435A6050F861
:100FF0003C2C9160447000210170084670BD0220B5
:1010000070BD10B5040003D094F83D0010B107E0A6
:10101000012010BD002084F83C00204600F00CF8B0
:10102000022084F83D00211D206800F08FFC012083
:1010300084F83D00002010BD08B500680B498842C7
:1010400012D10B48816941F40061816180690022FD
:1010500000F40060009011461920FFF7CDFCBDE8B8
:1010600008401920FFF7BABC08BD0000002C014061
:1010700000100240022180F83D1001688A6802F0E9
:101080000702062A03D00A6842F001020A60012121
:1010900080F83D10002070470168CA6842F00102E4
:1010A000CA600068816801F00701062903D0016861
:1010B00041F00101016000207047022180F83D10DD
:1010C00001680A6A41F211131A4207D10A6A9B1099
:1010D0001A4203D10A6822F001020A60012180F855
:1010E0003D100020704770B5044690F83C00012880
:1010F00017D0012584F83C50022084F83D00206878
:10110000826822F0770222F47F42826008685028C9
:1011100030D00DDC20284DD005DC98B310283BD111
:1011200048E0022070BD302844D0402834D139E056
:10113000602828D0702806D0B0F5805F2CD0B0F59C
:10114000005F29D10AE0CB68D1E90121206800F0D5
:101150002BFC2068816841F0770109E0CB68D1E978
:101160000121206800F020FC2068816841F4804162
:10117000816011E0CA684968206800F027FC5021AE
:10118000206807E016E0CA684968206800F02FFC74
:101190006021206800F012FC84F83D50002084F8A3
:1011A0003C0070BDCA684968206800F00FFC40210F
:1011B0002068EFE7226801461046EBE7704770B5FC
:1011C0000446006801694FF00005C943890715D43A
:1011D000C168C943890711D4E91E01610120207744
:1011E000206880698007204602D0FFF7E7FF04E00F
:1011F00000F098F8204600F096F8257720680169FD
:10120000C943490717D4C168C943490713D46FF0CC
:1012100004010161022020772068806910F4407F7A
:10122000204602D0FFF7CAFF04E000F07BF820461A
:1012300000F079F8257720680169C943090716D4B9
:10124000C168C943090712D46FF008010161042085
:1012500020772068C0698007204602D0FFF7AEFFE4
:1012600004E000F05FF8204600F05DF82577206884
:101270000169C943C90617D4C168C943C90613D453
:101280006FF010010161082020772068C06910F418
:10129000407F204602D0FFF791FF04E000F042F8C3
:1012A000204600F040F8257720680169C943C90746
:1012B00008D1C168C943C90704D1891E016120460C
:1012C00000F032F820680169C943090609D4C168F1
:1012D000C943090605D46FF0800101612046FFF77C
:1012E0006DFE20680169C943490609D4C168C94334
:1012F000490605D46FF040010161204600F01CF85A
:1013000020680169C94389060BD4C168C9438906AD
:1013100007D46FF0200101612046BDE87040FFF75F
:101320004EBE70BD704770474FF400410148FFF753
:10133000EBBA000000080140704770B5040004D00B
:1013400094F83900002510B106E0012070BD84F842
:101350003850204600F022F8242084F83900206814
:10136000C16821F40051C160204600F08BFB206869
:10137000016921F4904101612068416921F02A014D
:1013800041612068C16841F40051C160E5632020DB
:1013900084F8390084F83A00002070BD30B585B07B
:1013A0000024009401940294039400681849884230
:1013B0002BD11848C16941F40031C161C16901F400
:1013C00000310491816941F0040181618069124D0D
:1013D00000F00400049004200090022001900320FB
:1013E000039069462846FFF7AFF90820CDE90004CD
:1013F000694628460294FFF7A7F9002211462620E5
:10140000FFF7FAFA2620FFF7E9FA05B030BD000031
:101410000044004000100240000801402DE9F8435C
:10142000044690F839001F4616460D46202850D134
:10143000A5B19EB194F8380001284AD0012084F863
:1014400038004FF00008C4F83C80212084F83900AF
:10145000FFF766FAA6848146E68426E00120BDE80F
:10146000F883E08C401EE084A0684B46B0F5805FB6
:101470004FF000024FF080012046009703D000F0AB
:101480005DFBE8B90DE000F059FBC8B92888216878
:10149000C0F308004860206908B16D1C05E0AD1C70
:1014A00003E0216815F8010B4860E08C0028D8D1D2
:1014B0004B46002240212046009700F03FFB08B138
:1014C0000320CCE7202084F8390084F838800020FD
:1014D000C5E70220C3E7FEE710B50FA11048FEF7ED
:1014E00051FE0F4C0F4810A1206204F12400FEF7BA
:1014F00049FE1048606410A104F14800FEF742FE66
:101500001148A06611A104F16C00FEF73BFE1348E0
:10151000C4F88C0010BD0000504131355F6F6E0083
:10152000E40000209D180008504131355F6F666669
:10153000000000008D180008504131355F626C6971
:101540006E6B5F6F6E0000008118000850413135EE
:101550005F626C696E6B5F6F6666000075180008ED
:101560002DE9F05F0AAC94E8E05F1E4CA061A18019
:10157000E280E36125816681A781A4F80E80C4F82A
:101580002090A4F810A0A4F812B0A4F814C0A4F8F5
:1015900016E000F049F8012020703820A0701420D7
:1015A000FFF7C0F8302000F02FF90520FFF7BAF858
:1015B000302000F029F90120FFF7B4F8302000F0C6
:1015C00023F90120FFF7AEF8382000F01DF90F20B5
:1015D00000F01AF9012000F017F9BDE8F05F0220D1
:1015E000FFF7A0B80000002010B5094C0122E188E7
:1015F000A069FFF790F90A2000F05EF80022E18868
:10160000A069FFF788F9BDE810403C2000F054B80D
:1016100000000020020003488188806900D0012278
:10162000FFF779B90000002000B587B005A968462A
:10163000FFF7AAFA039898B3FFF7C6FA5FEA4000EB
:10164000FEF71BFE184A194BFEF7A5FDFEF722FE1A
:101650001749CA6942F00202CA6116490A6822F0B3
:1016600010020A600A6822F001020A600A6822F089
:1016700004020A600A6842F008020A600D49283133
:10168000401E08600920091D08600A490120143124
:101690000860081F016821F00101016007B000BD6A
:1016A000FFE7FFF791FACBE78DEDB5A0F7C6B03EA7
:1016B00000100240000400400949401E086008482C
:1016C0001C38016821F00101016005492C390A68C4
:1016D00042F001020A600168C907FCD070470000AF
:1016E0002C04004070B50646002409E00120FFF7F5
:1016F00091FF284600F016F8641CE4B2102C02D2C8
:10170000355D002DF2D170BD491E01F00F01012899
:1017100004D041F0C00000BF00F076B841F0800076
:10172000FAE700002DE9F84F0209364C02F00803F1
:1017300002F0040B217802F0020902F0010700F028
:10174000080A00F0040600F0020500F0010800930A
:1017500001292FD0022952D13A46218A206AFFF767
:10176000DAF84A46618A206AFFF7D5F85A46A18A14
:10177000206AFFF7D0F8E18A009A206AFFF7CBF8D9
:10178000FFF732FF4246218A206AFFF7C4F82A4653
:10179000618A206AFFF7BFF83246A18A206AFFF704
:1017A000BAF85246E18A206AFFF7B5F8BDE8F84F6B
:1017B000FFF71ABF42462189E069FFF7ACF82A46D5
:1017C0006189E069FFF7A7F83246A189E069FFF770
:1017D000A2F85246E189E069FFF79DF83A46218A6E
:1017E000206AFFF798F84A46618A206AFFF793F863
:1017F0005A46A18A206AFFF78EF8009AD2E7BDE820
:10180000F88F00000000002010B504460020FFF70C
:1018100001FF2046BDE81040FFF784BF10B586B039
:1018200000241248009401940294039404940E49F5
:101830000594016041F63F71C0E901146421C0E9DB
:10184000031444618461FFF7DCFB4FF48050009087
:1018500069460648FFF747FC049404A90348059429
:10186000FFF7AEFB06B010BD002C01404400002085
:10187000FEE770470148FFF720BC0000440000204D
:101880000148FFF7F7BB00004400002000224FF49E
:1018900000410148FFF73FB8000801400122D10391
:1018A0000148FFF738B80000000801407047704752
:1018B000FFF73CB810B590B028216846FEF749FC08
:1018C00014210AA8FEF745FC022000900120049094
:1018D00010200024059007946846FFF7CBF90F20ED
:1018E000CDE90A040C940D9400210AA80E94FFF788
:1018F000B5F810B010BD00000D48016841F00101BD
:10190000016041680B4A1140416001680A4A114078
:101910000160016821F480210160416821F4FE0129
:1019200041604FF41F0181600449C00308607047A3
:10193000001002400000FFF8FFFFF6FE08ED00E097
:101940000148FFF73CBC00004400002070B502686D
:10195000134B144C4FF08046984203D0B04201D054
:10196000A04203D122F070054A682A43984203D06E
:10197000B04201D0A04203D122F44074CA6822438D
:101980004C6922F08002224302608A68C2620A68BF
:101990008262984201D1096901630121416170BDF0
:1019A000002C01400004004010B5846842EA032284
:1019B00024F47F440A432243826010BD826822F0EF
:1019C00070020A4342F007018160704710B5036A54
:1019D000046A24F001040462846924F0F00444EAF7
:1019E000021423F00A020A438461026210BD10B59A
:1019F000036A23F0100303628369046A23F47043CB
:101A000043EA023224F0A00343EA01118261016239
:101A100010BD000070B515A11548FEF7A5FBF8B183
:101A2000134D002415F1200504EBC40005EB8001E3
:101A30000F48FEF799FB38B10EA11048FEF7A2FB44
:101A4000641C052CF0DB70BD04EBC40005EB8000CA
:101A5000006A8047BDE8704009A10848FEF792BBC4
:101A60000648001F0021017170BD00000000000049
:101A7000C40000204552524F5200000028000020B0
:101A80004F4B00002DE9F041044600680169E2680F
:101A900021F44051114301612169A0680843616943
:101AA00008432168CA6841F20C639A430243CA6042
:101AB00020684169A26921F44071114341611E49C6
:101AC000206864253226884202D1FFF78DF801E0B4
:101AD000FFF77AF800EBC00101EB001160686FF0CE
:101AE00018078000B1FBF0F2B2FBF5F2B1FBF0F3A6
:101AF0007A4303EB8202B1FBF0F306EB0212B2FB76
:101B0000F5F2B3FBF5F302F0F00202EB0312B1FBC6
:101B1000F0F3B1FBF0F0B0FBF5F0784303EB80009D
:101B200006EB0010B0FBF5F0216800F00F00104448
:101B30008860BDE8F0810000003801402DE9F041E7
:101B4000984617460E460446069D1DE0681C1BD0AD
:101B50002DB1FEF7E5FEA0EB0800A84214D92068DD
:101B6000C16821F4D071C1602068416921F0010190
:101B70004161202084F8390084F83A00002084F87C
:101B800038000320BDE8F0812068006836EA0000D4
:101B900004D00020B842D9D00020F3E70120F9E7B3
:101BA00010B51348006880060DD51148001D006867
:101BB0001149C2B20F4B0868082A12D00D2A03D06F
:101BC0001A54401C086010BDFFF724FF0A490BA0FF
:101BD000091D00F047F800F017F8BDE81040FEF7C7
:101BE00091BD0028EFDD0022401E08601A5410BD90
:101BF00000440040C40000202400002025730A0D8A
:101C000000000000FEE7000010B501210846FFF7C4
:101C10007BFD0DA0FFF766FD01210846FFF774FD6F
:101C20000E48FFF75FFD01210220FFF76DFD06A0C2
:101C3000FFF758FD01210220FFF766FDBDE81040C7
:101C40000748FFF74FBD0000202020202020202043
:101C5000202020202020202000000000C4000020A0
:101C6000280000200FB4054B10B503A9044A0298C0
:101C700000F0EAF810BC5DF814FB000079250008BC
:101C8000400000200907090E002804DB00F1E020D5
:101C900080F80014704700F00F0000F1E02080F899
:101CA000141D704702E008C8121F08C1002AFAD1AB
:101CB00070477047002001E001C1121F002AFBD1CC
:101CC000704700002DE9FF5F82B00021DDE904309C
:101CD000020DDDF840B0034318D044F61050A2F2D4
:101CE000FF3242431514119801281FD0A5EB0B00B9
:101CF000401C5FEA000A4FF000064E4FDFF83891B3
:101D0000B046504615D5CAF1000413E011980124DD
:101D10004AA3012801D16FEA0B010298119AC0E988
:101D20000031C0E9024206B0BDE8F09FCBF10000EF
:101D3000DFE704460021404A491842EB0450CDE950
:101D4000001012E0E00707D032463B4640464946C5
:101D5000FEF721FA8046894632463B461046194630
:101D6000FEF719FA06460F466410002CEAD1DDE9A9
:101D70000401DDE90023BAF1000F06DAFEF70BFAE1
:101D800042464B46FEF707FA05E0FEF7E7FB424600
:101D90004B46FEF7E3FB04460E460022284BFEF7B7
:101DA00065FC03D84FF0FF30014607E00022254BC9
:101DB00020463146FEF72BFBFEF73FFC102409E0DE
:101DC000002C0ADB0A220023FEF793FA039B303231
:101DD0001A55641E50EA0102F2D1641C039AC4F140
:101DE00011031444119A012A03D0012208430DD192
:101DF0000AE0084304D000204FF0110B119072E765
:101E0000A3EB0B056D1E0DE05B4504DD4FF00002FA
:101E100005F1010504E003DA4FF00002A5F1010528
:101E2000002AECD002981199C0E90231C0E90045BE
:101E300079E70000000014400000F03F300000008F
:101E40000000F0430000E03F2DE9FF4F95B09B46B6
:101E50008946064600250FE2252877D1002427462B
:101E6000F84A0121059400E0044316F8013F203BA5
:101E700001FA03F01042F7D130782A2811D06FF020
:101E80002F033078A0F13002092A16D8059A44F0C1
:101E9000020402EB820203EB42021044761C05901E
:101EA000EFE759F8042B0592002A03DA504244F474
:101EB0000054059044F00204761C30782E2816D188
:101EC00016F8010F44F004042A280DD06FF02F02F9
:101ED0003078A0F13003092B09D807EB870302EB18
:101EE0004303C718761CF3E759F8047B761C307857
:101EF0006C280FD006DC4C2817D068280DD06A2833
:101F000014D104E0742810D07A280FD10DE044F4E5
:101F100000140AE044F4801401E044F440147278A0
:101F2000824202D104F58014761C761C3078662833
:101F30000BD013DC582877D009DC002875D0452851
:101F4000F6D04628F4D047281AD19DE118E063283E
:101F500035D0642879D0652812D195E1702873D0E6
:101F600008DC6728F1D069286FD06E280DD06F2863
:101F700006D1B5E073282CD0752875D0782874D098
:101F80005A46179990476D1C75E1C4F30250022818
:101F900009D003280DD0D9F8001004280DD00D6009
:101FA00009F1040967E1D9F80010EA17C1E9005204
:101FB000F6E7D9F800100D80F2E70D70F0E719F898
:101FC000041B8DF8001000208DF80100EA46012066
:101FD00003E059F804AB4FF0FF3061074FF0000108
:101FE00002D40DE008F101018846B9420FDA8045BC
:101FF000F8DB1AF808100029F4D108E008F1010113
:1020000088468142FADB1AF808100029F6D10598B3
:102010005B46A0EB080721463846179A00F094FA71
:10202000284400EB080507E04DE029E10DE01AF82F
:10203000010B5A4617999047B8F10108F7D25B4651
:1020400021463846179A13E142E00A220092C4F36F
:1020500002524FF0000A022A08D059F804CB032A92
:102060004FEAEC710AD00DE029E02AE009F10701FE
:1020700021F00702F2E802C1914609E00FFA8CFC58
:102080004FEAEC71042A03D14FFA8CFC4FEAEC7151
:10209000002907DA0A460021DCF1000C61EB02019D
:1020A0002D2202E0220504D52B228DF804200122E6
:1020B00003E0E20701D02022F7E7904659E00A2129
:1020C00002E010220DE010214FF0000A00910BE019
:1020D00010224FF0000A44F004040827009203E0A5
:1020E00008224FF0000A0092C4F30252022A05D0DF
:1020F00059F804CB0021032A08D009E009F10701AF
:1021000021F00702F2E802C1914605E01FFA8CFCBB
:10211000042A01D10CF0FF0C4FF00008220728D54B
:10212000702806D0009B83F0100353EA0A0305D001
:102130000EE040228DF80420012208E05CEA010252
:1021400006D030228DF804208DF80500022290463A
:10215000009B83F0080353EA0A030AD15CEA0102F8
:1021600001D1620705D530228DF804204FF0010817
:102170007F1E582804D034A003900EA802900DE0D2
:1021800036A0F9E753466046009AFEF7B2F8844657
:102190000398825C0298401E029002705CEA010083
:1021A000F0D1029806A9081A00F1200A600702D5AA
:1021B00024F4803400E00127574502DDA7EB0A0034
:1021C00000E0002000EB0A01009005984144401A0D
:1021D0000590E00306D45B462146179A059800F067
:1021E000B3F90544002706E001A85A46C05D1799D7
:1021F00090476D1C7F1C4745F6DBE0030CD55B4622
:102200002146179A059800F09FF9054404E0302014
:102210005A46179990476D1C0099481E0090002956
:10222000F5DC08E0029802995A460078491C0291B0
:10223000179990476D1CBAF10001AAF1010AF1DC6F
:1022400065E100000928010030313233343536377A
:1022500038396162636465660000000030313233F2
:102260003435363738394142434445460000000092
:1022700000F058F90544761C307800287FF4ECAD66
:1022800019B02846BDE8F08F620700D4062709F18F
:10229000070222F0070CFCE80223E14603F00048A5
:1022A0005FEA080C02D00FF2702C0DE05FEA045CCC
:1022B00002D50FF2682C07E05FEAC47C02D00FF26F
:1022C000602C01E0AFF2700C4FF0FF3823F00043B8
:1022D000CDF850C065280CD006DC452809D046282A
:1022E0001DD047283DD13DE0662818D067287ED113
:1022F00038E00021112F01DB112000E0781CCDE92E
:10230000000106A90EA8FFF7DDFCDDE90F010E9A1A
:1023100003910021009207F1010A04914DE04FF072
:1023200000400097CDE9011006A90EA8FFF7CAFCEE
:10233000DDE90F0203920E9B11990022DDF80CA03B
:102340000093049211B9791C00EB010AB7EB0A0063
:1023500004D4C0F1FF3007F1010A0490AAEB070092
:10236000019044E0012F00DA01270021112F01DD47
:10237000112000E03846CDE9000106A90EA8FFF7BC
:10238000A1FCDDE90F010E9A039100210491009256
:10239000BA4621070CD40399514500DA8A46BAF1AE
:1023A000010F05DD009AAAF10101515C302908D026
:1023B000B84202DA10F1040F06DA0121CDE901106A
:1023C00015E0AAF10101E9E7002805DC04990144C0
:1023D0000491AAEB000102E0411C514500DD8A4650
:1023E0000499401A401C01904FF0004002902007D1
:1023F00004D40198504501DBCDF8048000208DF80D
:102400004F0002980DF14F07B0F1004F25D02B205F
:102410000E9002984FF0020800280CDA4042029019
:102420002D200E9007E00A210298FDF74CFF303175
:10243000029007F8011DB8F10001A8F10108F2DCD3
:1024400002980028EFD1791E0E980870307800F0BD
:10245000200040F0450007F8020D12A8C01B00F153
:1024600007081498007800B1012000EB0A010198D8
:1024700001EBE07105984144401A401E0590E003CD
:1024800006D45B462146179A059800F05DF805448E
:102490001498007818B15A46179990476D1CE003BC
:1024A00024D55B462146179A059800F04DF805445F
:1024B0001CE00498002807DBDDE90301884203DD06
:1024C0000098405C179901E0179930205A469047D0
:1024D000049805F10105401C04900198401E0190EC
:1024E00004D12E205A46179990476D1CBAF100016D
:1024F000AAF1010ADDDC05E017F8010B5A4617992D
:1025000090476D1CB8F10001A8F10108F4DC5B46AE
:102510002146179A0598ABE62D0000002B0000001D
:10252000200000002DE9F041044600251E46174614
:10253000880404D405E039462020B0476D1C641E91
:10254000F9D52846BDE8F0812DE9F0410446002583
:102550001E469046C80301D5302700E02027880496
:1025600004D505E041463846B0476D1C641EF9D5D8
:102570002846BDE8F081000013B54FF6FF73012235
:1025800069460248FEF74AFF00981CBD84000020FF
:102590008AB0FEF7D3F9FFF78DF900243048009494
:1025A000019402940394816941F00401816180697E
:1025B0002C4D00F004000490224643F6F0712846AA
:1025C000FEF7A9F94BF6F07000900120CDE9010467
:1025D0000220039069462846FEF7B6F823492248B0
:1025E00008604FF41650C1E901040C20CC60C1E929
:1025F00004408C610846CC61FEF79FFEFFF70EF9A0
:102600001B484024C0F8004117490C31086840F0CD
:1026100040000860086840F0200008601348403817
:10262000FEF73AFD11484038FEF747FDE3015A1026
:1026300051100DF1140C48108CE80F00401041109F
:1026400080220094CDE90121CDE903052B4620220B
:1026500010212846FEF784FFFEF73EFFFEE700004C
:1026600000100240000801400044004084000020A7
:1026700004E000E00000000000000000010203048C
:10268000060708090000000001020304AC26000848
:102690000000002044000000A41C0008F0260008F0
:1026A0004400002054050000B41C0008010F38004D
:1026B000000000000000000000000000000000001A
:1026C000000000000000000000000000000000000A
:1026D00000000000000000000000000001000000F9
:1026E00010000000000000000024F40000000000C2
:04000005080000ED02
:00000001FF
